:020000040800F2
:10000000A81A0020990100088D1F0008D71E0008BB
:1000100000000000000000000000000000000000E0
:10002000000000000000000000000000931F000816
:100030000000000000000000911F0008951F00084C
:10004000AB010008AB010008AB010008AB010008E0
:10005000AB010008AB010008AB010008AB010008D0
:10006000AB010008AB010008AB010008AB010008C0
:10007000AB010008AB010008AB010008AB010008B0
:10008000AB010008AB010008AB010008AB010008A0
:10009000AB010008AB010008AB010008AB01000890
:1000A000AB010008AB010008AB010008AB01000880
:1000B000692F0008AB010008AB01000800F002F84E
:1000C00000F03EF80CA030C8083824182D18A246BD
:1000D000671EAB4654465D46AC4201D100F030F895
:1000E0007E460F3E0FCCB6460126334200D0FB1AA7
:1000F000A246AB46334318470831000028310000C0
:10010000103A02D378C878C1FAD8520701D330C860
:1001100030C101D504680C60704700000023002442
:1001200000250026103A01D378C1FBD8520700D32E
:1001300030C100D50B6070471FB51FBD10B510BD95
:1001400000F0F0F91146FFF7F7FF02F0DBFF00F0D7
:1001500008FA03B4FFF7F2FF03BC00F00FFA000047
:1001600070B505460C46164602E00FCC0FC5103E92
:10017000102EFAD2082E02D303CC03C5083E042E5B
:1001800007D301CC01C5361F03E021782970641C18
:100190006D1C761EF9D270BD07488047074800479E
:1001A000FEE7FEE7FEE7FEE7FEE7FEE70448054957
:1001B000054A064B70470000FD1F0008BD000008FF
:1001C000A8140020A81A0020A8160020A8160020B5
:1001D0004343514330B55C18010C130C0D4692B2E9
:1001E0005D4380B251432C19054655430A0C09045E
:1001F0004D1962415843010C00044019514130BD72
:10020000FEB5054610460C46184373D0AE468C46E4
:100210000020AD1A01469C4167D3664600270124A1
:100220003D46B61A9D4102D313463A4621246546FF
:1002300076462F04360C3E432D0CB61A9D4104D34E
:10024000150C1B042B4312041034654676462F060A
:10025000360A3E432D0AB61A9D4104D3150E1B02E1
:100260002B4312020834654676462F0736093E4373
:100270002D09B61A9D4104D3150F1B012B43120102
:10028000241D65467646AF07B6083E43AD08B61A4C
:100290009D4104D3950F9B002B439200A41C6546FF
:1002A0007646EF0776083E436D08B61A9D411AD38D
:1002B00092185B41641C16E0001876466546494179
:1002C000B71A9D410191009009D36046B11A984137
:1002D0008E468446009801990025401C6941DD073F
:1002E00052082A435B08641EE6D57246634603B093
:1002F000F0BDFFE700200146C046C0462A4623461F
:10030000F5E7F8B5042A2CD3830712D00B78491CE3
:100310000370401C521E83070BD00B78491C0370DE
:10032000401C521E830704D00B78491C0370401CEC
:10033000521E8B079B0F05D0C91ADF002023DE1B3E
:1003400008C90AE0FFF70CFFF8BD1D4608C9FD40CB
:100350001C46B4402C4310C0121F042AF5D2F308E7
:10036000C91A521EF0D40B78491C0370401C521E4F
:10037000EAD40B78491C0370401C012AE4D40978A4
:100380000170F8BD01E004C0091F0429FBD28B07EE
:1003900001D50280801CC90700D002707047002977
:1003A0000BD0C30702D00270401C491E022904D39F
:1003B000830702D50280801C891EE3E70022EEE756
:1003C0000022DFE7002203098B422CD3030A8B4271
:1003D00011D300239C464EE003460B433CD400223D
:1003E00043088B4231D303098B421CD3030A8B424F
:1003F00001D394463FE0C3098B4201D3CB01C01A1D
:10040000524183098B4201D38B01C01A52414309E7
:100410008B4201D34B01C01A524103098B4201D3D5
:100420000B01C01A5241C3088B4201D3CB00C01A42
:10043000524183088B4201D38B00C01A52414308BA
:100440008B4201D34B00C01A5241411A00D20146DF
:100450005241104670475DE0CA0F00D04942031078
:1004600000D34042534000229C4603098B422DD3C7
:10047000030A8B4212D3FC22890112BA030A8B426F
:100480000CD3890192118B4208D3890192118B42BE
:1004900004D389013AD0921100E08909C3098B4243
:1004A00001D3CB01C01A524183098B4201D38B0186
:1004B000C01A524143098B4201D34B01C01A524129
:1004C00003098B4201D30B01C01A5241C3088B426E
:1004D00001D3CB00C01A524183088B4201D38B0059
:1004E000C01A5241D9D243088B4201D34B00C01AE3
:1004F0005241411A00D20146634652415B101046F8
:1005000001D34042002B00D54942704763465B103F
:1005100000D3404201B50020C046C04602BD70472E
:1005200070477047754600F025F8AE4605006946ED
:100530005346C008C000854618B020B5FFF736FE08
:1005400060BC00274908B6460026C0C5C0C5C0C566
:10055000C0C5C0C5C0C5C0C5C0C5403D49008D4669
:10056000704710B50446C046C0462046FFF7F1FD6F
:1005700010BD0000004870474414002001491820B5
:10058000ABBEFEE726000200704772B600BFFEE772
:100590000146002901D1012070472520405C022836
:1005A00008D00420C86300BF00222420425400BFAA
:1005B0000120F1E7086800680E2290430A68106085
:1005C000886C0068FF22013290438A6C10600868D2
:1005D0000068400840000A6810601C22486C104007
:1005E00001228240086C4260CA6C086D5060486D00
:1005F000002809D0486D0068FF22013290434A6DFF
:1006000010608A6DC86D506001222520425400BFE1
:1006100000222420425400BF0020BDE770B50446EC
:1006200000252520005D022803D00420E063012579
:1006300037E0206800680E21884321680860206840
:1006400000684008400021680860A06C0068FF2135
:1006500001318843A16C08601C21606C08400121B5
:100660008140206C4160E16C206D4860606D002825
:1006700009D0606D0068FF2101318843616D086019
:10068000A16DE06D486001212520015500BF0021CA
:100690002420015500BFA06B002802D02046A16B8A
:1006A0008847284670BD000070B503460A46002101
:1006B000DCE001268E4014683440002C73D015799C
:1006C000AD07AD0F012D04D01579AD07AD0F022D8B
:1006D00018D198684E000325B5400646AE43304613
:1006E0004E00D568B54028439860586801258D4074
:1006F0000646AE4330461026556835402D098D40DC
:10070000284358601579AD07AD0F032D0BD0D8687D
:100710004E000325B5400646AE4330464E00956870
:10072000B5402843D8601579AD07AD0F022D15D11E
:10073000CD08AE001D462035A8594D07EE0E0F25F9
:10074000B5400646AE4330464E07F60E1569B54035
:100750002843CD08AD001E462036705118684E0063
:100760000325B5400646AE4330461579AD07AD0FBB
:100770004E00B540284318600326360455683540BE
:10078000002D72D03C4D8E08B600A8598D07EE0E94
:100790000F25B5400646AE43304605252D07AB4232
:1007A00002D1002515E060E0344DAB4201D10125B6
:1007B0000FE0334DAB4201D102250AE0314DAB428F
:1007C00001D1032505E0304DAB4201D1042500E005
:1007D00005258E07F60EB5402843274D8E08B60036
:1007E000A851254D603D28680546A54328460126A9
:1007F000360555683540002D02D00546254328466C
:100800001D4D603D286068680546A54328460126C1
:10081000760555683540002D02D00546254328460B
:10082000154D603D6860144D203568680546A54348
:1008300028460126760455683540002D02D005462D
:10084000254328460C4D2035686028680546A54399
:1008500028460126360455683540002D02D005464D
:1008600025432846044D20352860491C1568CD4095
:10087000002D00D01DE770BD60180240000400503C
:1008800000080050000C00500010005001480068A3
:1008900070470000040000200348006803490978FD
:1008A0004018014908607047040000200C00002037
:1008B00010B5002408480068FF21013108430649AB
:1008C0000860032000F00AF8002801D0012401E0AC
:1008D00000F034F8204610BD00200240F8B5044670
:1008E00000251348007800281ED0114801787D208B
:1008F000C000FFF767FD074639460E480068FFF75E
:1009000061FD064600F020FF00280BD1042C07D221
:1009100000222146401E00F049F80748046004E028
:10092000012502E0012500E001252846F8BD000070
:100930000C000020100000200800002008B500BFB7
:1009400010480068012108430E4908600846006805
:10095000C007C00F009000BF00BF00BF094840386B
:10096000C06B8905084307494039C8630846C06B16
:1009700009040840009000BF00BF0320400200F0BF
:10098000D7FE08BD401002400146002909DB00BF28
:1009900000BFCB06DB0E01229A40034B1A6000BF5A
:1009A00000BF00BF7047000000E100E070B50446E2
:1009B0000D4616462946204602F0EEFA70BD0000AC
:1009C00070B504461148006803214902884320435A
:1009D0000E4908604815844216D10D49096806225F
:1009E000514308460B49FFF7EDFC451C05E0002D7F
:1009F00001D06D1E01E0032070BD04484069012153
:100A0000890208408842F2D00020F5E700700040DB
:100A10001000002040420F00FEB5044600270020D1
:100A20000290012149042068084088427BD10020BF
:100A30000190F248C06BC902084000280ED100BFE7
:100A4000EE48C06B0843ED49C8630846C06B090413
:100A50000840009000BF00BF01200190E8480068F6
:100A6000FF2101310843E6490860FFF70FFF064602
:100A700006E0FFF70BFF801B022801D9032706E0E1
:100A8000DF480068FF21013108400028F1D000BF95
:100A9000002F4BD1D9484030C569032109020D40D0
:100AA000002D1AD0206CA84217D0D4484030C0691D
:100AB00088430546D1484030C069012109040843F4
:100AC000CE494031C8610846C06901210904884304
:100AD000CA494031C8610846C561E807C00F00280F
:100AE00013D0FFF7D3FE064607E0FFF7CFFE801BCB
:100AF000C449884201D9032706E0C0484030C06994
:100B0000022108400028F0D000BF002F0CD1BB48C4
:100B10004030C069032109028843216C0843B7496A
:100B20004031C86103E00DE0029700E002970198B0
:100B3000012806D1B148C06B012109078843AF499C
:100B4000C86300BF2078C007C00F002809D0AB4899
:100B5000403040698008800061680843A7494031FF
:100B60004861022120680840022809D1A34840308A
:100B700040690C218843A1680843A049403148617D
:100B8000042120680840042809D19C48403040696D
:100B900030218843E1680843984940314861102179
:100BA0002068084010280AD1944840304069032149
:100BB00089028843216908439049403148610121F5
:100BC00009032068084088420AD18C4840304069B7
:100BD000032109028843616908438849403148611B
:100BE000012149022068084088420AD183484030E8
:100BF0004069032189048843A16A08437F49403141
:100C00004861012189022068084088420AD17B4856
:100C100040304069032109058843E16A0843774968
:100C20004031486120212068084020280AD17348BB
:100C300040304069032109038843A16908436F4993
:100C40004031486140212068084040280AD16B4863
:100C500040304069032189038843E16908436749BB
:100C6000403148610121890320680840884213D13E
:100C700062484030406980008008216B08435F492A
:100C8000403148610906206B884205D15B48C06845
:100C9000891308435949C8600121C90420680840E4
:100CA000884209D155484030406940218843616BF2
:100CB00008435249403148610121490520680840F4
:100CC000884214D14D484030406949008843A16BA7
:100CD00008434A494031486101218905A06B884297
:100CE00005D14648C068890008434449C8600121CD
:100CF000890520680840884213D140484030406947
:100D000089008843E16B08433C4940314861012137
:100D10000906E06B884204D13848C0680843374967
:100D2000C8600121C90220680840884213D13348B5
:100D30004030806980088000216A08432F49403193
:100D40008861206A012806D12C48C0680121090465
:100D500008432A49C86001214903206808408842A5
:100D600013D12648403080690C218843616A0843CA
:100D7000224940318861606A042806D11F48C06852
:100D80000121090408431D49C860012109062068A2
:100D90000840884215D11948403080690321090371
:100DA0008843616C0843154940318861012149033A
:100DB000606C884205D11148C068C90208430F49D8
:100DC000C8600121490620680840884214D10B48B8
:100DD00040308069032109028843A16C0843074918
:100DE000403188618915A06C884205D10348C068EC
:100DF000090408430149C8600298FEBD0010024082
:100E0000007000408813000070B504460D46002CA9
:100E100001D1012070BD6B4800684007400FA84217
:100E200018D268480068C008C000284365490860B7
:100E3000FFF72CFD064607E0FFF728FD801B6249FF
:100E4000884201D90320E5E75E4800684007400F6B
:100E5000A842F1D1022120680840022815D10421BE
:100E600020680840042807D15848806807210903F2
:100E70008843401855498860544880680F2109020A
:100E80008843A1680843514988602078C007C00F93
:100E9000002854D06068012808D14C48006801211E
:100EA0004904084000282ED10120B3E760680228D9
:100EB00008D146480068012149060840002822D18F
:100EC0000120A7E76068002808D140480068012198
:100ED00089020840002816D101209BE7606803289A
:100EE00008D13A484030006A0221084000280AD15F
:100EF00001208FE735484030C069022108400028B2
:100F000001D1012086E731488068C008C0006168CF
:100F100008432E498860FFF7B9FC064607E0FFF753
:100F2000B5FC801B2849884201D9032072E7274875
:100F30008068382108406168C9008842EFD12148A3
:100F400000684007400FA84218D91E480068C00832
:100F5000C00028431B490860FFF798FC064607E0DD
:100F6000FFF794FC801B1849884201D9032051E700
:100F7000144800684007400FA842F1D104212068BE
:100F80000840042808D111488068072109038843D4
:100F9000E16808430D49886000F03AF80B49896818
:100FA0000F2212021140090A8900094A515CC90640
:100FB000C90EC8400749086007480068FFF78EFC63
:100FC00028E70000002002408813000000100240C3
:100FD000A03100081000002008000020014800682F
:100FE000704700001000002000B5FFF7F7FF06492A
:100FF0008968072212031140090B8900034A515CDA
:10100000C906C90EC84000BD00100240E03100080A
:10101000FEB5354880683821084000280DD1324897
:10102000006809020840C10A0120884000902F484A
:101030000099FFF7C7F9044654E02B48806838212F
:101040000840082801D12A4C4CE027488068382104
:101050000840102834D12448C0688607B60F2248BB
:10106000C068702108400009401C0190022E0FD07A
:10107000032E0CD11E480199FFF7A4F91A49C9683B
:101080007F2212021140090A484305460DE000BFC5
:1010900016480199FFF796F91349C9687F22120291
:1010A0001140090A4843054600BF00BF0E48C0680A
:1010B000400F471C39462846FFF784F9044611E0E3
:1010C0000948806838210840202801D1840209E0BD
:1010D0000548806838210840182802D17D24240260
:1010E00000E000242046FEBD001002400024F40071
:1010F00000127A00FEB50446002C01D10120FEBD8D
:101100002078C007C00F00286FD0F74887683821C3
:101110000F40C0688607B60F102F01D1032E01D0F3
:10112000082F0BD1F048006801214904084000282D
:101130005BD06068002858D10120E0E700BF0121A2
:1011400009046068884205D1E74800680843E64919
:10115000086021E005210904606888420ED1E24858
:101160000068012189040843DF49086008460068D7
:10117000012109040843DC4908600DE0DA480068F1
:10118000012109048843D849086008460068012104
:1011900089048843D449086000BF6068002812D0E1
:1011A000FFF774FB054606E0FFF770FB401B642861
:1011B00001D90320A3E7CC48006801214904084075
:1011C0000028F1D011E0FFF761FB054606E0FFF7CC
:1011D0005DFB401B642801D9032090E7C2480068EA
:1011E0000121490408400028F1D10221206808406B
:1011F000022873D1BC488068382108400746BA48A5
:10120000C0688607B60F102F01D1022E01D0002F23
:1012100036D1B5480068012189020840002804D071
:10122000E068002801D1012069E7AF4840687F21CC
:1012300009028843616909020843AB494860002FED
:1012400016D1084600680721C9028843216908436E
:10125000A5490860084600680722D2021040C20A69
:10126000012090400146A148FFF7ACF8A049086072
:10127000A0480068FFF732FB002849D001203EE774
:10128000E06800282BD0984800680721C9028843ED
:101290002169084394490860084600688915084395
:1012A00091490860FFF7F2FA054606E0FFF7EEFA0B
:1012B000401B022801D9032021E78B480068012147
:1012C000890208400028F1D0874840687F21090240
:1012D00088436169090208438349486018E08248ED
:1012E0000068FF21013188437F490860FFF7CEFA8B
:1012F000054606E0FFF7CAFA401B022801D9032081
:10130000FDE6794800680121890208400028F1D1F2
:10131000082120680840082849D17348806838218E
:10132000084018280BD170484030006A022108405C
:1013300000283CD0A069002839D10120DFE6A0694F
:1013400000281AD068484030006A012108436649E5
:1013500040310862FFF79AFA054606E0FFF796FA71
:10136000401B022801D90320C9E65F484030006ACB
:10137000022108400028F1D019E05B484030006AA3
:1013800040084000584940310862FFF77FFA05469F
:1013900006E0FFF77BFA401B022801D90320AEE6E6
:1013A00051484030006A022108400028F1D1042150
:1013B0002068084004287CD1002001904A488068B9
:1013C0003821084020280BD147484030C06902210D
:1013D000084000286ED0A06800286BD101208EE65E
:1013E0004148C06B010F01208843002810D000BF86
:1013F0003D48C06B0121090708433B49C8630846C3
:10140000C06B09040840009000BF00BF012001909C
:1014100039480068FF2101310840002816D13648BC
:101420000068084334490860FFF730FA054606E0D3
:10143000FFF72CFA401B022801D903205FE62E4853
:101440000068FF21013108400028F1D000BFA068EA
:10145000012808D124484030C069012108432249AD
:101460004031C86120E0A06805280FD11E484030F7
:10147000C069042108431C494031C8610846C0695D
:101480000121084318494031C8610DE01648403039
:10149000C0694108490014484030C161C069042155
:1014A000884311494031C86100BFA068002816D0A8
:1014B00001E040E03EE0FFF7E9F9054607E0FFF70D
:1014C000E5F9401B0D49884201D9032017E606487B
:1014D0004030C069022108400028F0D01EE0FFF72C
:1014E000D5F9054614E00000001002400024F40085
:1014F0001000002008000020007000408813000049
:10150000FFF7C4F9401B8649884201D90320F6E55C
:101510008448C069022108400028F1D101980128BF
:1015200008D180484038C06B0121090788437D49B4
:101530004039C86300BF20212068084020283AD1E4
:10154000E06900281BD07748403800684904084308
:10155000744940390860FFF799F9054606E0FFF73E
:1015600095F9401B022801D90320C8E56D48403891
:1015700000680121C90508400028F0D01BE0694837
:101580004038006801218905884366494039086070
:10159000FFF77CF9054606E0FFF778F9401B0228C3
:1015A00001D90320ABE55F48403800680121C90537
:1015B00008400028F0D1206A00285CD05948403803
:1015C00080683821084010287CD0206A022853D136
:1015D0005448403800680121090688435149403980
:1015E0000860FFF753F9054606E0FFF74FF9401B87
:1015F000022801D9032082E54A48403800680121C9
:10160000490608400028F0D1A16A606A0843E16AEF
:1016100009020843216B0843616B0843A16B08432F
:1016200040494039C968404A114008433D49403962
:10163000C860084600680121090608433949403955
:1016400008600846C0680904084336494039C86044
:10165000FFF71CF9054606E0FFF718F9401B0228C2
:1016600001D903204BE52F48403800680121490685
:1016700008400028F0D050E02A4840380068012196
:1016800009068843274940390860FFF7FFF80546F7
:1016900006E0FFF7FBF8401B022801D903202EE5E6
:1016A0002048403800680121490608400028F0D150
:1016B0001C484038C0681D4908401A494039C86074
:1016C0002BE0FFE7206A012800D118E515484038D3
:1016D000C668B107890F606A81421CD17020304012
:1016E000A16A884217D17F2000023040E16A0902D6
:1016F000884210D11F2040043040216B88420AD11B
:10170000072040063040616B884204D1710F4907C1
:10171000A06B814201D00120F1E40020EFE4000041
:1017200088130000401002408C80C111FCFFFEEEC7
:10173000044909680322520291430143014A11609E
:10174000704700000000014070B504462546681E41
:101750000949884201D901200CE0681E0749486107
:101760000321081F01F018FC0020044988610720AC
:101770000861002070BD0000FFFFFF0000E000E0F6
:1017800070B5044600BF8420005D012801D102200D
:1017900070BD01218420015500BF24218820015102
:1017A00020680568206800684008400021680860DB
:1017B000012040070543606620680560204600F070
:1017C0001FFC20218820015100BF002184200155E9
:1017D00000BF0020DCE77047704770B504460D4637
:1017E00000BF8420005D012801D1022070BD0121CD
:1017F0008420015500BF24218820015120680668FB
:1018000020680068400840002168086020688068FF
:10181000072149068843284321688860204600F054
:10182000EFFB2068066020218820015100BF0021C5
:101830008420015500BF0020D8E770B504460D464E
:1018400000BF8420005D012801D1022070BD01216C
:101850008420015500BF242188200151206806689A
:10186000206800684008400021680860206880689F
:10187000C000C008284321688860204600F0C0FBF3
:101880002068066020218820015100BF00218420AB
:10189000015500BF0020D9E770477047704700002E
:1018A000F0B585B004462068C569206806682068E0
:1018B0008768FA48284003900398002814D1202014
:1018C0002840002810D020203040002804D10120DA
:1018D00000073840002807D0606F002802D020465B
:1018E000616F884705B0F0BD039800287ED0EC48B2
:1018F0003840002803D1EB4830400028F6D0E807F4
:10190000C00F00280DD0FF2001303040002808D043
:10191000012021680862902000590121084390218C
:1019200008510220284000280CD0F807C00F0028DA
:1019300008D0022021680862902000590421084341
:10194000902108510420284000280CD0F807C00F2F
:10195000002808D004202168086290200059022144
:1019600008439021085108202840002810D020204A
:101970003040002803D1CA483840002808D0082049
:1019800021680862902000590821084390210851DD
:101990000120C002284000280ED0012080063040DF
:1019A000002809D00120C002216808629020005957
:1019B00020210843902108519020005900285ED032
:1019C0002020284000280ED020203040002804D1BC
:1019D000012000073840002805D0606F002802D0A1
:1019E0002046616F88479020005900E048E002904F
:1019F0002068806840210840402804D028210298AF
:101A00000840002835D0204600F0F0FB20688068B0
:101A100040210840402828D100BF01F0F9FA019088
:101A2000012001F0F8FA206880684021884321688D
:101A30008860019801F0EFFA00BF8020005900286B
:101A40000FD0994980200059816380210859FEF701
:101A5000E5FD002813D0802210591259916B884758
:101A60000DE02046FFF71AFF09E02046FFF716FFBA
:101A700005E02046FFF712FF00219020015131E7D9
:101A8000E06E01287ED11020284000287AD0102056
:101A900030400028FAD01020216808622068806851
:101AA00040210840402876D18020005900684068D5
:101AB00080B20190019800286CD05C20015B0198F5
:101AC000814267DD5E21019808538020005900683B
:101AD00000682021084000284DD100BF01F098FA8D
:101AE0000090012001F097FA20680068FF21013181
:101AF000884321680860009801F08DFA00BF00BF9C
:101B000001F086FA0090012001F085FA20688068D3
:101B10004008400021688860009801F07CFA00BF0E
:101B200000BF01F075FA0090012001F074FA2068FE
:101B300080684021884321688860009801F06BFA32
:101B400000BF20218C2001510020E06600BF01F081
:101B50005FFA0090012001F05EFA20680068102111
:101B6000884321680860009801F055FA00BF802181
:101B70000859FEF70DFD022020675C20025B5E2005
:101B8000005B02E057E006E004E0101A81B2204654
:101B9000FFF721FEA6E65C20015B5E20005B081AD1
:101BA00080B201905E20005B002843D0019800289D
:101BB00040D000BF01F02CFA0090012001F02BFA78
:101BC00020680068FF21213188432168086000985F
:101BD00001F021FA00BF00BF01F01AFA00900120C5
:101BE00001F019FA206880682D49C943084021682E
:101BF0008860009801F00FFA00BF20218C2001516D
:101C00000020E066606700BF01F002FA009001204A
:101C100001F001FA206800681021884321680860FB
:101C2000009801F0F8F900BF0220206720460199D2
:101C3000FFF7D1FD56E601200005284000280CD012
:101C4000012080053840002807D0012000052168C8
:101C500008622046FFF721FE44E680202840002845
:101C60000FD080203040002804D10120C00538402A
:101C7000002806D0A06F002802D02046A16F884718
:101C800030E640202840002810D040203040002876
:101C90000CD0204600F0ECFA24E600000F0800000B
:101CA0000100001020010004D52100080120C0051A
:101CB0002840002808D0012080073040002803D0A9
:101CC0002046FFF7E9FD0DE6012000062840002828
:101CD00007D0F00FC007002803D02046FFF77CFD97
:101CE00000E600BFFEE510B50446002C01D101203E
:101CF00010BDA069002800D000E000BF8820005976
:101D0000002805D1002184200155204600F02CF840
:101D10002421882001512068006840084000216883
:101D20000860204600F0BCFD012800D1E0E7A06A71
:101D3000002802D0204600F097F920684068092169
:101D4000C902884321684860206880682A21884346
:101D500021688860206800680121084321680860C4
:101D6000204600F0F9F9C3E710B59AB004461421F3
:101D700015A8FEF725FB4C2102A8FEF721FB2249FE
:101D8000206888423ED1022002900020049002A8E0
:101D9000FEF742FE002801D0FEF7F7FB00BF1B480C
:101DA000C06B0121490408431849C8630846C06B49
:101DB000012149040840019000BF00BF00BF134843
:101DC000406B01210843114948630846406BC00736
:101DD000C00F019000BF00BF0C201590022016908C
:101DE0000020179018900120199015A905200007D0
:101DF000FEF75AFC002211461C20FEF7D7FD1C20DE
:101E0000FEF7C2FD1AB010BD0044004000100240B1
:101E1000F8B504460D4616468C20005920283CD1C2
:101E2000002D01D0002E01D10120F8BD01210903B0
:101E3000A068884208D12069002805D1E807C00FB2
:101E4000002801D00120F0E70020E0661449206856
:101E500088421CD013492068884218D02068406806
:101E60000121C9050840002811D000BF01F0D0F8B9
:101E70000746012001F0CFF820680068012189069B
:101E8000084321680860384601F0C5F800BF3246B3
:101E90002946204600F008FFC7E70220C5E70000FA
:101EA000008000400084004070B5054601220649CC
:101EB0000648FFF7ADFF0446002C03D10249044851
:101EC00001F0ACF870BD00000000002014000020FC
:101ED000A8000020704700BFFEE7000008B500BF63
:101EE0000648406B01210843044948630846406B9B
:101EF000C007C00F009000BF00BF08BD0010024027
:101F000010B51F481F490860E120400248600021C9
:101F10001C488160C16001610C2141610021816127
:101F20000121C903C16100210162416220201549DC
:101F30008862010213480164FFF7D5FE002801D032
:101F4000FEF723FB00210F48FFF777FC002801D0A4
:101F5000FEF71BFB00210B48FFF73FFC002801D0D8
:101F6000FEF713FB0748FFF70BFC002801D0FEF734
:101F70000CFB012204490348FFF74AFF10BD000093
:101F800000440040140000200000002000BFFEE7D5
:101F90007047704710B5FEF77FFC10BD00B593B0D9
:101FA0003C2104A8FEF70CFA00200090019002905A
:101FB000039001204002FEF703FD02200490C001BF
:101FC0000790002008904020099000200C9004A861
:101FD000FFF790F8002801D0FEF7D7FA072000900D
:101FE000002001900290039000216846FEF70CFF4C
:101FF000002801D0FEF7C9FA13B000BD70470000F9
:10200000F8B50446606E002805D101216A2001530D
:102010006820015322E00827082200922068806887
:10202000072149060840450E20688068460F0C4A83
:10203000915D0C4A935D009A53431846FEF7CCF924
:1020400081B26A200153064A515D064A525D7A43C5
:102050001046FEF7C1F981B268200153F8BD0000B7
:102060008F31000887310008018DC907C90F002989
:1020700008D001684968012252049143C26A1143A1
:10208000026851600222816A1140022907D1016869
:102090004968D2039143026B1143026851600422E4
:1020A000816A1140042907D10168496812049143EB
:1020B000426B1143026851600822816A114008296D
:1020C00007D10168496812039143826B114302688A
:1020D00051601022816A1140102907D10168896876
:1020E00012029143C26B1143026891602022816AFF
:1020F0001140202907D10168896812029143026CBE
:102100001143026891604022816A1140402915D133
:102110000168496892039143426C1143026851601F
:1021200001221205416C914208D1016849680322DD
:1021300052059143826C1143026851608022816A8A
:102140001140802907D10168496812039143C26C8C
:10215000114302685160704738B504460021902051
:102160000151FEF793FB05462068006808210840EE
:1021700008280BD116482B460022890400902046DF
:1021800000F062FE002801D0032038BD20680068FE
:102190000421084004280BD10D482B4600220905D4
:1021A0000090204600F050FE002801D00320ECE70C
:1021B0002021882001518C2001510020E0662067F9
:1021C00000BF00218420015500BF0020DDE7000092
:1021D000FFFFFF0170B50546AC6A00215E20015388
:1021E000562001532046FFF759FB70BD70B50446D9
:1021F00000BF00F00DFF0546012000F00CFF206835
:102200000068FF212131884321680860284600F0DA
:1022100002FF00BF00BF00F0FBFE0546012000F0FA
:10222000FAFE2068806811490840216888602846C5
:1022300000F0F1FE00BFE06E012810D100BF00F0F9
:10224000E7FE0546012000F0E6FE20680068102148
:10225000884321680860284600F0DDFE00BF202189
:102260008C2001510020E066606770BDFEFFFFEF2B
:1022700070B5044600BF00F0CBFE0546012000F01B
:10228000CAFE20680068402188432168086028460B
:1022900000F0C1FE00BF2021882001510020A0676E
:1022A0002046FFF717FE70BDF8B504466020075BB7
:1022B0008C200059222865D12068406A86B2A56D1D
:1022C000304638402880A06D801CA0655E20005BF1
:1022D000401E81B25E200153005B002858D100BF30
:1022E00000F096FE0090012000F095FE2068006846
:1022F000FF212131884321680860009800F08BFE9F
:1023000000BF00BF00F084FE0090012000F083FEBB
:10231000206880684008400021688860009800F0CC
:102320007AFE00BF20218C200151002060672067C9
:10233000E06E012822D10020E06600BF00F068FEB8
:102340000090012000F067FE20680068102188439B
:1023500021680860009800F05EFE00BF2068C06938
:10236000102108400009002802D0102021680862CE
:102370005C20015B2046FFF72EFA09E02046FFF7BC
:1023800093FD05E020688069082108432168886181
:10239000F8BD0000F0B587B004466020005B0690F1
:1023A0002068C569206800680390206880680290F2
:1023B0008C20005922287DD16820005B0490B0E079
:1023C0002068406A80B20590A76D0699059808407C
:1023D0003880A06D801CA0655E20005B401E81B22D
:1023E0005E2001532068C5696807400F002840D06F
:1023F000E807C00F00280ED0FF21013103980840E4
:10240000002808D00120216808629020005901218D
:102410000843902108510220284000280DD002983E
:10242000C007C00F002808D0022021680862902051
:102430000059042108439021085104202840002815
:102440000DD00298C007C00F002808D004202168D2
:1024500008629020005902210843902108519020E1
:102460000059002805D02046FFF718FA00219020D7
:1024700001515E20005B002853D100BF00F0C8FD71
:102480000190012000F0C7FD20680068FF210131A4
:10249000884321680860019800F0BDFD00BF00BFBF
:1024A00000F0B6FD0190012000F0B5FD20688068C5
:1024B0003A4900E06AE0084021688860019800F02D
:1024C000AAFD00BF20218C200151002060672067F9
:1024D000E06E012822D10020E06600BF00F098FDE8
:1024E0000190012000F097FD2068006810218843CA
:1024F00021680860019800F08EFD00BF2068C06967
:10250000102108400009002802D01020216808622C
:102510005C20015B2046FFF75EF902E02046FFF7F2
:10252000C3FC0498002804D020202840002800D0B4
:1025300046E75E20065B002E2ED06820005BB0428E
:102540002ADD00BF00F064FD0190012000F063FD72
:102550002068806801210907884321688860019804
:1025600000F059FD00BF0E48606700BF00F050FD4D
:102570000190012000F04FFD2068006820210843F1
:1025800021680860019800F046FD05E02068806938
:10259000082108432168886107B0F0BDFEFFFFEF06
:1025A000A9220008F8B504466020065B8C2000597B
:1025B000222865D12068406A85B2F0B22840A16D1A
:1025C0000870A06D401CA0655E20005B401E81B2BB
:1025D0005E200153005B002858D100BF00F018FDB9
:1025E0000746012000F017FD20680068FF21213117
:1025F000884321680860384600F00DFD00BF00BF29
:1026000000F006FD0746012000F005FD2068806807
:102610004008400021688860384600F0FCFC00BF9C
:1026200020218C200151002060672067E06E012886
:1026300022D10020E06600BF00F0EAFC074601203E
:1026400000F0E9FC206800681021884321680860D8
:10265000384600F0E0FC00BF2068C0691021084047
:102660000009002802D01020216808625C20015B6C
:102670002046FFF7B0F809E02046FFF715FC05E01B
:10268000206880690821084321688861F8BD00003E
:10269000F0B585B004466020005B04902068C569F1
:1026A0002068006802902068806801908C200059A2
:1026B00022287DD16820005B0390AFE02068406A4B
:1026C00087B20498C0B23840A16D0870A06D401C5C
:1026D000A0655E20005B401E81B25E200153206831
:1026E000C5696807400F002840D0E807C00F0028E0
:1026F0000ED0FF21013102980840002808D00120A7
:102700002168086290200059012108439021085156
:102710000220284000280DD00198C007C00F0028D3
:1027200008D0022021680862902000590421084343
:10273000902108510420284000280DD00198C0079E
:10274000C00F002808D0042021680862902000599A
:10275000022108439021085190200059002805D0FB
:102760002046FFF79BF80021902001515E20005B7E
:10277000002853D100BF00F04BFC0090012000F076
:102780004AFC20680068FF21013188432168086005
:10279000009800F040FC00BF00BF00F039FC009042
:1027A000012000F038FC206880683B49084000E0C8
:1027B00069E021688860009800F02DFC00BF2021AE
:1027C0008C200151002060672067E06E012822D133
:1027D0000020E06600BF00F01BFC0090012000F02C
:1027E0001AFC20680068102188432168086000985E
:1027F00000F011FC00BF2068C069102108400009EA
:10280000002802D01020216808625C20015B20466D
:10281000FEF7E1FF02E02046FFF746FB03980028A1
:1028200004D020202840002800D047E75E20065B27
:10283000002E2ED06820005BB0422ADD00BF00F0E1
:10284000E7FB0090012000F0E6FB20688068012192
:102850000907884321688860009800F0DCFB00BF0E
:102860000E48606700BF00F0D3FB0090012000F02D
:10287000D2FB206800682021084321680860009886
:1028800000F0C9FB05E02068806908210843216841
:10289000886105B0F0BD0000FEFFFFEFA525000830
:1028A000F0B58DB0044600200590F04920688842BC
:1028B00003D0EF492068884200D100E000BF2169C1
:1028C000A068084361690843E169084307902068EC
:1028D0000068E849084007990843216808602068B3
:1028E0004068032109038843E16808432168486080
:1028F000A0690790DD492068884207D0DC4920683C
:10290000884203D0206A07990843079020688068AE
:10291000D949084007990843216888602068C06A3F
:1029200000090001616A08432168C86200BFD349F9
:102930002068884217D1D24840698007800F00285C
:1029400006D0012808D0022804D0032808D105E0C9
:10295000002507E0022505E0042503E0082501E045
:10296000102500BF8CE0C7492068884217D1C448B1
:1029700040690C210840002806D0042808D0082807
:1029800004D00C2808D105E0002507E0022505E069
:10299000042503E0082501E0102500BF70E0BA49D6
:1029A0002068884217D1B648406930210840002885
:1029B00006D0102808D0202804D0302808D105E0FF
:1029C000002507E0022505E0042503E0082501E0D5
:1029D000102500BF54E0AD492068884201D1002590
:1029E0004EE0AB492068884201D1002548E0A94962
:1029F0002068884201D1002542E09C492068884235
:102A00001AD19F484069032189020840002808D054
:102A100001218902401A08D0401A04D0401A08D176
:102A200005E0002507E0022505E0042503E0082570
:102A300001E0102500BF23E08D49206888421ED1A7
:102A40008F48406903210902084000280CD0FF3854
:102A5000013800280CD0FF380138002806D0FF3894
:102A60000138002808D105E0002507E0022505E02F
:102A7000042503E0082501E0102500BF00E0102533
:102A800000BF7A492068884203D07949206888428B
:102A900063D1002D06D0022D08D0042D08D0082DBA
:102AA0000DD109E0FEF7A0FA06460CE07A4E0AE0E6
:102AB000FEF7AEFA064606E00126F60303E000261E
:102AC0000120059000BF00BF002E14D0606A4000B6
:102AD000724A115A3046FDF775FC04906068410057
:102AE00041180498814204D8606801030498814227
:102AF00002D201200590AEE0606A40006749085AA2
:102B000002460023019030461946FDF779FBFF236A
:102B100001330022099308920A910B901A46089BF0
:102B2000FDF756FB62685208002380185941039153
:102B300002906068024601900298FDF761FB07462B
:102B4000032109028F4205D35548874202D82068E5
:102B5000C76080E0012005907DE00121C903E069A4
:102B6000884241D1002D06D0022D08D0042D08D076
:102B7000082D0DD109E0FEF737FA06460CE0464E67
:102B80000AE0FEF745FA064606E00126F60303E0F2
:102B900000260120059000BF00BF002E5BD0606AB8
:102BA00040003E4A115A3046FDF70CFC4000616877
:102BB0004908401803906168FDF704FC0746102F90
:102BC0000FD3384887420CD836480F383840069023
:102BD0003807400F06990843069006982168C86098
:102BE00039E00120059036E0002D06D0022D08D0F6
:102BF000042D08D0082D0DD109E0FEF7F5F90646A1
:102C00000CE0254E0AE0FEF703FA064606E0012630
:102C1000F60303E000260120059000BF00BF002E50
:102C200019D0606A40001D4A115A3046FDF7CAFBB0
:102C300061684908401803906168FDF7C3FB0746C7
:102C4000102F06D31748874203D8B8B22168C8604E
:102C500001E00120059001216A2001536820015301
:102C600000206067A06705980DB0F0BD00800040AF
:102C700000840040F369FFCFFFF4FF1100380140EA
:102C8000401002400044004000480040004C00401A
:102C900000500040003C01400024F400683100086E
:102CA000FFFF0F00FFFF0000F8B504460E46154673
:102CB000A6655C2005535E2005530020606700BFB9
:102CC00001210903A06888420AD12069002803D1A4
:102CD00058496020015324E0FF216020015320E087
:102CE000A06800280AD12069002803D1FF216020B4
:102CF000015316E07F216020015312E001210907F2
:102D0000A06888420AD12069002803D17F21602071
:102D1000015306E03F216020015302E000216020C2
:102D2000015300BF00219020015122218C2001512C
:102D300000BF00F06DF90746012000F06CF9206833
:102D400080680121084321688860384600F063F9F3
:102D500000BF01214907606E884236D16820005BC0
:102D6000A84232DC4914A068884205D120690028B5
:102D700002D13148606701E030486067206900286F
:102D800011D000BF00F044F90746012000F043F9DC
:102D900020680068FF210131084321680860384637
:102DA00000F039F900BF00BF00F032F907460120FA
:102DB00000F031F920688068012109070843216883
:102DC0008860384600F027F932E001210903A06845
:102DD000884205D12069002802D11948606701E0C6
:102DE000184860672069002811D000BF00F010F972
:102DF0000746012000F00FF920680068FF2121310B
:102E0000084321680860384600F005F910E000BF6B
:102E100000F0FEF80746012000F0FDF82068006889
:102E20002021084321680860384600F0F4F800BF0C
:102E30000020F8BDFF01000095230008912600083E
:102E4000A9220008A5250008FFB581B004460D465B
:102E500017460A9E7BE0701C002878D0FDF716FD0F
:102E60000499401AB04201D8002E2FD100BF00F0C3
:102E7000CFF80090012000F0CEF820680068FF2114
:102E8000A131884321680860009800F0C4F800BFB1
:102E900000BF00F0BDF80090012000F0BCF82068F1
:102EA00080684008400021688860009800F0B3F80E
:102EB00000BF2021882001518C20015100BF00213A
:102EC0008420015500BF032005B0F0BD20680068D4
:102ED0000421084000283AD02068C069490208400F
:102EE000C00A002833D008462168086200BF00F0FD
:102EF0008FF80090012000F08EF820680068FF2114
:102F0000A131884321680860009800F084F800BF70
:102F100000BF00F07DF80090012000F07CF82068F0
:102F200080684008400021688860009800F073F8CD
:102F300000BF2021882001518C2001519020015197
:102F400000BF00218420015500BF0320BCE720689A
:102F5000C0692840A84201D1012000E00020B84209
:102F600000D178E70020AFE710B50248FEF798FCE3
:102F700010BD00001400002010B5044B01220449CC
:102F8000044800F097F80446204610BDBC0000201D
:102F900088130000A800002010B5002819DB1A4A89
:102FA00003231B02D21883089B00D2588307DC0E30
:102FB000FF23A3409A438B071B0E8407E40EA34014
:102FC0001A43114B032424021B198408A4001A512C
:102FD00018E00E4A03071B0F083B9B089B00D258C2
:102FE0008307DC0EFF23A3409A438B071B0E840745
:102FF000E40EA3401A43054B0407240F083CA40821
:10300000A4001A5110BD000000E100E01CED00E03A
:10301000EFF31080704780F31088704770B5044656
:103020000D460026204600F05FF8002801D0701EF3
:1030300070BD6068E16848432169461862682946A6
:103040003046FDF75EF92168E268501CFDF7BAF9D9
:10305000E1600020ECE710B50446E068A168884212
:1030600002D10020C04310BD2168A268501CFDF7AA
:10307000A9F9A1600020F6E7014600228868CB6824
:10308000984201D10020704748688B6858430B690B
:10309000C2181046F7E70146C8688A68904203D311
:1030A000C8688A68801A7047C8680A6880188A6881
:1030B000801AF8E7F8B504460D4616461F4600BFCD
:1030C00000BF00BF00BF00BF00BF00BF00BF284659
:1030D000704301463846FDF771F9256066600020AF
:1030E000A060E0602761F8BD10B504462168E26881
:1030F000501CFDF767F9A068814201D1012010BD85
:103100000020FCE7FDF7D4FBFEF748FFFEF7E6FEE4
:10311000FEF7F6FEFFF730FF01E000F001F8FCE7F4
:1031200070B59AB000240D48FFF7B5FF0446002C97
:1031300001D11AB070BD00250AE00848FFF79CFFD6
:103140000646307801A948550448FFF784FF6D1CF6
:10315000A542F2D300BF00BFEBE70000A8000020AB
:10316000081C3044586C8000010002000400060076
:1031700008000A000C001000200040008000000140
:10318000081C3044586C800101010307010000084D
:103190000402040801010100081C3044586C80003E
:1031A000000000000000000000000000000000001F
:1031B000000000000000000000000000000000000F
:1031C00001000000020000000300000004000000F5
:1031D00006000000070000000800000009000000D1
:1031E00000000000000000000000000000000000DF
:1031F00001000000020000000300000004000000C5
:103200002032000800000020140000000001000827
:103210003432000814000020941A00001C01000839
:103220000000000000000000040000000100000099
:043230000024F40082
:04000005080000BD32
:00000001FF
